S02300004E6577686176656E204C4344204D6F64756C652044656D6F2030322E7372656325
S113000014C019C018C017C016C015C014C013C03E
S113001012C011C010C00FC00EC00DC00CC00BC068
S11300200AC009C008C007C006C011241FBECFED16
S1130030CDBF4FD08FC0E4CF81B38E6081BB939A84
S1130040089519B812B893B1906C93B9813049F0FE
S113005028F0823049F0833051F00BC01898199879
S113006008C01898199A05C01998189A02C0189AC5
S1130070199A1A9888E08AB989E189B908955D9B2B
S1130080FECF93988CB95E9BFECF5E9A939A0895A7
S11300908EEFF5DF81E5F3DF8FE99FE00197F1F75C
S11300A000C0000008958EEFEADF85E5E8DF87EC05
S11300B090E00197F1F700C0000008958EEFDFDFB4
S11300C080E7DDDF8FE39FE10197F1F700C00000D7
S11300D008952FEF80E792E0215080409040E1F7AF
S11300E000C00000A9DF83E0ACDFD2DFE7DF2FEF41
S11300F081EE94E0215080409040E1F700C0000080
S1130100C7DF88E4BCDF85E6BADF8CE6B8DF8CE6BF
S1130110B6DF8FE6B4DF80E2B2DF87E5B0DF8FE6DB
S1130120AEDF82E7ACDF8CE6AADF84E6A8DF81E2FB
S1130130A6DF2FEF81EE94E0215080409040E1F75C
S113014000C00000B0DF8FE39CE90197F1F700C025
S10B01500000F8CFF894FFCF82
S9030000FC
